{
  "contractName": "voting",
  "abi": [
    {
      "inputs": [],
      "name": "abhiVotes",
      "outputs": [
        {
          "internalType": "uint256",
          "name": "",
          "type": "uint256"
        }
      ],
      "stateMutability": "view",
      "type": "function"
    },
    {
      "inputs": [],
      "name": "aklavyaVotes",
      "outputs": [
        {
          "internalType": "uint256",
          "name": "",
          "type": "uint256"
        }
      ],
      "stateMutability": "view",
      "type": "function"
    },
    {
      "inputs": [
        {
          "internalType": "address",
          "name": "",
          "type": "address"
        }
      ],
      "name": "hasVoted",
      "outputs": [
        {
          "internalType": "bool",
          "name": "",
          "type": "bool"
        }
      ],
      "stateMutability": "view",
      "type": "function"
    },
    {
      "inputs": [],
      "name": "voteAbhi",
      "outputs": [],
      "stateMutability": "nonpayable",
      "type": "function"
    },
    {
      "inputs": [],
      "name": "voteAklavya",
      "outputs": [],
      "stateMutability": "nonpayable",
      "type": "function"
    },
    {
      "inputs": [],
      "name": "getAbhi",
      "outputs": [
        {
          "internalType": "uint256",
          "name": "",
          "type": "uint256"
        }
      ],
      "stateMutability": "view",
      "type": "function"
    },
    {
      "inputs": [],
      "name": "getAklavya",
      "outputs": [
        {
          "internalType": "uint256",
          "name": "",
          "type": "uint256"
        }
      ],
      "stateMutability": "view",
      "type": "function"
    }
  ],
  "bytecode": "0x608060405234801561001057600080fd5b506105ea806100206000396000f3fe608060405234801561001057600080fd5b506004361061007d5760003560e01c80635525a7f41161005b5780635525a7f4146100da578063a760e5fc146100f8578063cea9fc2314610116578063ea42e958146101345761007d565b806309eef43e14610082578063438b9cb7146100b25780634aaff607146100bc575b600080fd5b61009c6004803603810190610097919061038f565b61013e565b6040516100a99190610456565b60405180910390f35b6100ba61015e565b005b6100c461025c565b6040516100d191906104b1565b60405180910390f35b6100e2610262565b6040516100ef91906104b1565b60405180910390f35b61010061026b565b60405161010d91906104b1565b60405180910390f35b61011e610271565b60405161012b91906104b1565b60405180910390f35b61013c61027b565b005b60026020528060005260406000206000915054906101000a900460ff1681565b600260003373ffffffffffffffffffffffffffffffffffffffff1673ffffffffffffffffffffffffffffffffffffffff16815260200190815260200160002060009054906101000a900460ff16156101eb576040517f08c379a00000000000000000000000000000000000000000000000000000000081526004016101e290610491565b60405180910390fd5b6000808154809291906101fd90610525565b91905055506001600260003373ffffffffffffffffffffffffffffffffffffffff1673ffffffffffffffffffffffffffffffffffffffff16815260200190815260200160002060006101000a81548160ff021916908315150217905550565b60015481565b60008054905090565b60005481565b6000600154905090565b600260003373ffffffffffffffffffffffffffffffffffffffff1673ffffffffffffffffffffffffffffffffffffffff16815260200190815260200160002060009054906101000a900460ff1615610308576040517f08c379a00000000000000000000000000000000000000000000000000000000081526004016102ff90610471565b60405180910390fd5b6001600081548092919061031b90610525565b91905055506001600260003373ffffffffffffffffffffffffffffffffffffffff1673ffffffffffffffffffffffffffffffffffffffff16815260200190815260200160002060006101000a81548160ff021916908315150217905550565b6000813590506103898161059d565b92915050565b6000602082840312156103a157600080fd5b60006103af8482850161037a565b91505092915050565b6103c1816104ef565b82525050565b60006103d46016836104cc565b91507f796f75206861766520616c726561647920766f746564000000000000000000006000830152602082019050919050565b60006104146016836104cc565b91507f596f75206861766520616c726561647920766f746564000000000000000000006000830152602082019050919050565b6104508161051b565b82525050565b600060208201905061046b60008301846103b8565b92915050565b6000602082019050818103600083015261048a816103c7565b9050919050565b600060208201905081810360008301526104aa81610407565b9050919050565b60006020820190506104c66000830184610447565b92915050565b600082825260208201905092915050565b60006104e8826104fb565b9050919050565b60008115159050919050565b600073ffffffffffffffffffffffffffffffffffffffff82169050919050565b6000819050919050565b60006105308261051b565b91507fffffffffffffffffffffffffffffffffffffffffffffffffffffffffffffffff8214156105635761056261056e565b5b600182019050919050565b7f4e487b7100000000000000000000000000000000000000000000000000000000600052601160045260246000fd5b6105a6816104dd565b81146105b157600080fd5b5056fea264697066735822122078a304354c71d95068effe7263052dd403cfcf6c0a8fb15bc9ad9d8938f9953c64736f6c63430008000033",
  "immutableReferences": {},
  "source": "// SPDX-License-Identifier: UNLICENSED\r\npragma solidity ^0.8.0;\r\n\r\ncontract voting {\r\n    uint public abhiVotes;\r\n    uint public aklavyaVotes;\r\n\r\n    mapping(address => bool) public hasVoted;\r\n\r\n   function voteAbhi() public {\r\n        require(!hasVoted[msg.sender], \"You have already voted\");\r\n        abhiVotes++;\r\n        hasVoted[msg.sender] = true;\r\n    }\r\n\r\n    function voteAklavya() public{\r\n        require(!hasVoted[msg.sender] , \"you have already voted\" );\r\n        aklavyaVotes++;\r\n        hasVoted[msg.sender] = true;\r\n    }\r\n\r\n    function getAbhi() public view returns (uint){\r\n      return abhiVotes;\r\n    }\r\n\r\n\r\n    function getAklavya() public view returns (uint){\r\n        return aklavyaVotes;\r\n    }\r\n\r\n}\r\n",
  "sourcePath": "C:\\Users\\Aklavya\\OneDrive\\Desktop\\Blockchain_Voting\\contracts\\voting.sol",
  "compiler": {
    "name": "solc",
    "version": "0.8.0+commit.c7dfd78e.Emscripten.clang"
  },
  "schemaVersion": "3.4.16",
  "updatedAt": "2025-09-11T08:50:32.702Z",
  "devdoc": {
    "kind": "dev",
    "methods": {},
    "version": 1
  },
  "userdoc": {
    "kind": "user",
    "methods": {},
    "version": 1
  }
}